{
  "_format": "hh-sol-artifact-1",
  "contractName": "Library",
  "sourceName": "contracts/Library.sol",
  "abi": [
    {
      "anonymous": false,
      "inputs": [
        {
          "indexed": false,
          "internalType": "address",
          "name": "recipient",
          "type": "address"
        },
        {
          "indexed": false,
          "internalType": "uint256",
          "name": "bookId",
          "type": "uint256"
        }
      ],
      "name": "AddBook",
      "type": "event"
    },
    {
      "anonymous": false,
      "inputs": [
        {
          "indexed": false,
          "internalType": "uint256",
          "name": "bookId",
          "type": "uint256"
        },
        {
          "indexed": false,
          "internalType": "bool",
          "name": "finished",
          "type": "bool"
        }
      ],
      "name": "SetFinished",
      "type": "event"
    },
    {
      "inputs": [
        {
          "internalType": "string",
          "name": "name",
          "type": "string"
        },
        {
          "internalType": "uint16",
          "name": "year",
          "type": "uint16"
        },
        {
          "internalType": "string",
          "name": "author",
          "type": "string"
        },
        {
          "internalType": "bool",
          "name": "finished",
          "type": "bool"
        }
      ],
      "name": "addBook",
      "outputs": [],
      "stateMutability": "nonpayable",
      "type": "function"
    },
    {
      "inputs": [],
      "name": "getFinishedBooks",
      "outputs": [
        {
          "components": [
            {
              "internalType": "uint256",
              "name": "id",
              "type": "uint256"
            },
            {
              "internalType": "string",
              "name": "name",
              "type": "string"
            },
            {
              "internalType": "uint256",
              "name": "year",
              "type": "uint256"
            },
            {
              "internalType": "string",
              "name": "author",
              "type": "string"
            },
            {
              "internalType": "bool",
              "name": "finished",
              "type": "bool"
            }
          ],
          "internalType": "struct Library.Book[]",
          "name": "",
          "type": "tuple[]"
        }
      ],
      "stateMutability": "view",
      "type": "function"
    },
    {
      "inputs": [],
      "name": "getUnFinishedBooks",
      "outputs": [
        {
          "components": [
            {
              "internalType": "uint256",
              "name": "id",
              "type": "uint256"
            },
            {
              "internalType": "string",
              "name": "name",
              "type": "string"
            },
            {
              "internalType": "uint256",
              "name": "year",
              "type": "uint256"
            },
            {
              "internalType": "string",
              "name": "author",
              "type": "string"
            },
            {
              "internalType": "bool",
              "name": "finished",
              "type": "bool"
            }
          ],
          "internalType": "struct Library.Book[]",
          "name": "",
          "type": "tuple[]"
        }
      ],
      "stateMutability": "view",
      "type": "function"
    },
    {
      "inputs": [
        {
          "internalType": "uint256",
          "name": "bookId",
          "type": "uint256"
        },
        {
          "internalType": "bool",
          "name": "finished",
          "type": "bool"
        }
      ],
      "name": "setFinished",
      "outputs": [],
      "stateMutability": "nonpayable",
      "type": "function"
    }
  ],
  "bytecode": "0x608060405234801561001057600080fd5b5061102c806100206000396000f3fe608060405234801561001057600080fd5b506004361061004c5760003560e01c806305eee670146100515780636aa835a81461006f57806376d9e5a01461008b578063c079766d146100a9575b600080fd5b6100596100c5565b60405161006691906108e5565b60405180910390f35b61008960048036038101906100849190610973565b6100d6565b005b6100936101b8565b6040516100a091906108e5565b60405180910390f35b6100c360048036038101906100be9190610b22565b6101c9565b005b60606100d1600061031e565b905090565b3373ffffffffffffffffffffffffffffffffffffffff166001600084815260200190815260200160002060009054906101000a900473ffffffffffffffffffffffffffffffffffffffff1673ffffffffffffffffffffffffffffffffffffffff16036101b45760016000838154811061015257610151610bc1565b5b906000526020600020906005020160040160006101000a81548160ff0219169083151502179055507fa4f349f92993cc89f62be8c4bead1bd7d76d2e9c4d05da59739c6e0dd75f042c82826040516101ab929190610c0e565b60405180910390a15b5050565b60606101c4600161031e565b905090565b60008080549050905060006040518060a001604052808381526020018781526020018661ffff16815260200185815260200184151581525090806001815401808255809150506001900390600052602060002090600502016000909190919091506000820151816000015560208201518160010190816102499190610e43565b506040820151816002015560608201518160030190816102699190610e43565b5060808201518160040160006101000a81548160ff0219169083151502179055505050336001600083815260200190815260200160002060006101000a81548173ffffffffffffffffffffffffffffffffffffffff021916908373ffffffffffffffffffffffffffffffffffffffff1602179055507f10545577c692a22f651e69221c47ad4418e40434b36f4e2411bc54007aa8cbb9338260405161030f929190610f56565b60405180910390a15050505050565b60606000808054905067ffffffffffffffff8111156103405761033f6109bd565b5b60405190808252806020026020018201604052801561037957816020015b6103666106b1565b81526020019060019003908161035e5790505b5090506000805b6000805490508110156105f5573373ffffffffffffffffffffffffffffffffffffffff166001600083815260200190815260200160002060009054906101000a900473ffffffffffffffffffffffffffffffffffffffff1673ffffffffffffffffffffffffffffffffffffffff1614801561043057508415156000828154811061040d5761040c610bc1565b5b906000526020600020906005020160040160009054906101000a900460ff161515145b156105e2576000818154811061044957610448610bc1565b5b90600052602060002090600502016040518060a00160405290816000820154815260200160018201805461047c90610c66565b80601f01602080910402602001604051908101604052809291908181526020018280546104a890610c66565b80156104f55780601f106104ca576101008083540402835291602001916104f5565b820191906000526020600020905b8154815290600101906020018083116104d857829003601f168201915b505050505081526020016002820154815260200160038201805461051890610c66565b80601f016020809104026020016040519081016040528092919081815260200182805461054490610c66565b80156105915780601f1061056657610100808354040283529160200191610591565b820191906000526020600020905b81548152906001019060200180831161057457829003601f168201915b505050505081526020016004820160009054906101000a900460ff1615151515815250508383815181106105c8576105c7610bc1565b5b602002602001018190525081806105de90610fae565b9250505b80806105ed90610fae565b915050610380565b5060008167ffffffffffffffff811115610612576106116109bd565b5b60405190808252806020026020018201604052801561064b57816020015b6106386106b1565b8152602001906001900390816106305790505b50905060005b828110156106a55783818151811061066c5761066b610bc1565b5b602002602001015182828151811061068757610686610bc1565b5b6020026020010181905250808061069d90610fae565b915050610651565b50809350505050919050565b6040518060a00160405280600081526020016060815260200160008152602001606081526020016000151581525090565b600081519050919050565b600082825260208201905092915050565b6000819050602082019050919050565b6000819050919050565b6107218161070e565b82525050565b600081519050919050565b600082825260208201905092915050565b60005b83811015610761578082015181840152602081019050610746565b60008484015250505050565b6000601f19601f8301169050919050565b600061078982610727565b6107938185610732565b93506107a3818560208601610743565b6107ac8161076d565b840191505092915050565b60008115159050919050565b6107cc816107b7565b82525050565b600060a0830160008301516107ea6000860182610718565b5060208301518482036020860152610802828261077e565b91505060408301516108176040860182610718565b506060830151848203606086015261082f828261077e565b915050608083015161084460808601826107c3565b508091505092915050565b600061085b83836107d2565b905092915050565b6000602082019050919050565b600061087b826106e2565b61088581856106ed565b935083602082028501610897856106fe565b8060005b858110156108d357848403895281516108b4858261084f565b94506108bf83610863565b925060208a0199505060018101905061089b565b50829750879550505050505092915050565b600060208201905081810360008301526108ff8184610870565b905092915050565b6000604051905090565b600080fd5b600080fd5b6109248161070e565b811461092f57600080fd5b50565b6000813590506109418161091b565b92915050565b610950816107b7565b811461095b57600080fd5b50565b60008135905061096d81610947565b92915050565b6000806040838503121561098a57610989610911565b5b600061099885828601610932565b92505060206109a98582860161095e565b9150509250929050565b600080fd5b600080fd5b7f4e487b7100000000000000000000000000000000000000000000000000000000600052604160045260246000fd5b6109f58261076d565b810181811067ffffffffffffffff82111715610a1457610a136109bd565b5b80604052505050565b6000610a27610907565b9050610a3382826109ec565b919050565b600067ffffffffffffffff821115610a5357610a526109bd565b5b610a5c8261076d565b9050602081019050919050565b82818337600083830152505050565b6000610a8b610a8684610a38565b610a1d565b905082815260208101848484011115610aa757610aa66109b8565b5b610ab2848285610a69565b509392505050565b600082601f830112610acf57610ace6109b3565b5b8135610adf848260208601610a78565b91505092915050565b600061ffff82169050919050565b610aff81610ae8565b8114610b0a57600080fd5b50565b600081359050610b1c81610af6565b92915050565b60008060008060808587031215610b3c57610b3b610911565b5b600085013567ffffffffffffffff811115610b5a57610b59610916565b5b610b6687828801610aba565b9450506020610b7787828801610b0d565b935050604085013567ffffffffffffffff811115610b9857610b97610916565b5b610ba487828801610aba565b9250506060610bb58782880161095e565b91505092959194509250565b7f4e487b7100000000000000000000000000000000000000000000000000000000600052603260045260246000fd5b610bf98161070e565b82525050565b610c08816107b7565b82525050565b6000604082019050610c236000830185610bf0565b610c306020830184610bff565b9392505050565b7f4e487b7100000000000000000000000000000000000000000000000000000000600052602260045260246000fd5b60006002820490506001821680610c7e57607f821691505b602082108103610c9157610c90610c37565b5b50919050565b60008190508160005260206000209050919050565b60006020601f8301049050919050565b600082821b905092915050565b600060088302610cf97fffffffffffffffffffffffffffffffffffffffffffffffffffffffffffffffff82610cbc565b610d038683610cbc565b95508019841693508086168417925050509392505050565b6000819050919050565b6000610d40610d3b610d368461070e565b610d1b565b61070e565b9050919050565b6000819050919050565b610d5a83610d25565b610d6e610d6682610d47565b848454610cc9565b825550505050565b600090565b610d83610d76565b610d8e818484610d51565b505050565b5b81811015610db257610da7600082610d7b565b600181019050610d94565b5050565b601f821115610df757610dc881610c97565b610dd184610cac565b81016020851015610de0578190505b610df4610dec85610cac565b830182610d93565b50505b505050565b600082821c905092915050565b6000610e1a60001984600802610dfc565b1980831691505092915050565b6000610e338383610e09565b9150826002028217905092915050565b610e4c82610727565b67ffffffffffffffff811115610e6557610e646109bd565b5b610e6f8254610c66565b610e7a828285610db6565b600060209050601f831160018114610ead5760008415610e9b578287015190505b610ea58582610e27565b865550610f0d565b601f198416610ebb86610c97565b60005b82811015610ee357848901518255600182019150602085019450602081019050610ebe565b86831015610f005784890151610efc601f891682610e09565b8355505b6001600288020188555050505b505050505050565b600073ffffffffffffffffffffffffffffffffffffffff82169050919050565b6000610f4082610f15565b9050919050565b610f5081610f35565b82525050565b6000604082019050610f6b6000830185610f47565b610f786020830184610bf0565b9392505050565b7f4e487b7100000000000000000000000000000000000000000000000000000000600052601160045260246000fd5b6000610fb98261070e565b91507fffffffffffffffffffffffffffffffffffffffffffffffffffffffffffffffff8203610feb57610fea610f7f565b5b60018201905091905056fea2646970667358221220c041f377310b4925729d32902d0d62086a5e24146bd822d3ab8161d51625ce3464736f6c63430008110033",
  "linkReferences": {},
  "deployedLinkReferences": {}
}